:020000040000FA
:060000000A128A11FC2F18
:100E6C0083160313081488148811081183120313B2
:100E7C0008118811412F83120313881C462F482F09
:100E8C000130492F0030F000081C4D2F4F2F01303E
:100E9C00502F0030700500380319552F562F772F1F
:100EAC00081588110330F2008A30F1005530F0003B
:100EBC00F00B5E2FF10B5E2FF20B5E2F652F831262
:100ECC000313081188150330F2008A30F1005530F5
:100EDC00F000F00B6F2FF10B6F2FF20B6F2F762FA3
:100EEC00B22F081588110630F2001330F100AD3026
:100EFC00F000F00B7F2FF10B7F2FF20B7F2F862F43
:100F0C000630F2001330F100AD30F000F00B8C2FF6
:100F1C00F10B8C2FF20B8C2F932F831203130811D0
:100F2C0088150630F2001330F100AD30F000F00BF4
:100F3C009D2FF10B9D2FF20B9D2FA42F0630F2004D
:100F4C001330F100AD30F000F00BAA2FF10BAA2FEB
:100F5C00F20BAA2FB12FB22F831203130818B72F3D
:100F6C00B82FBC2F881CBB2FBC2F412F0815881104
:100F7C000330F2008A30F1005530F000F00BC42F32
:100F8C00F10BC42FF20BC42FCB2F0330F2008A309D
:100F9C00F1005530F000F00BD12FF10BD12FF20BEB
:100FAC00D12FD82F83120313081188150330F200A8
:100FBC008A30F1005530F000F00BE22FF10BE22FEC
:100FCC00F20BE22FE92F0330F2008A30F10055309A
:100FDC00F000F00BEF2FF10BEF2FF20BEF2FF62FA2
:100FEC00412F412F412F0A128A11002883010A1226
:040FFC008A11362FF1
:02400E00D4EFED
:00000001FF
